{
  "_format": "hh-sol-artifact-1",
  "contractName": "AnimalNFT",
  "sourceName": "contracts/AnimalNFT.sol",
  "abi": [
    {
      "inputs": [],
      "stateMutability": "nonpayable",
      "type": "constructor"
    },
    {
      "anonymous": false,
      "inputs": [
        {
          "indexed": true,
          "internalType": "address",
          "name": "owner",
          "type": "address"
        },
        {
          "indexed": true,
          "internalType": "address",
          "name": "approved",
          "type": "address"
        },
        {
          "indexed": true,
          "internalType": "uint256",
          "name": "tokenId",
          "type": "uint256"
        }
      ],
      "name": "Approval",
      "type": "event"
    },
    {
      "anonymous": false,
      "inputs": [
        {
          "indexed": true,
          "internalType": "address",
          "name": "owner",
          "type": "address"
        },
        {
          "indexed": true,
          "internalType": "address",
          "name": "operator",
          "type": "address"
        },
        {
          "indexed": false,
          "internalType": "bool",
          "name": "approved",
          "type": "bool"
        }
      ],
      "name": "ApprovalForAll",
      "type": "event"
    },
    {
      "anonymous": false,
      "inputs": [
        {
          "indexed": true,
          "internalType": "address",
          "name": "previousOwner",
          "type": "address"
        },
        {
          "indexed": true,
          "internalType": "address",
          "name": "newOwner",
          "type": "address"
        }
      ],
      "name": "OwnershipTransferred",
      "type": "event"
    },
    {
      "anonymous": false,
      "inputs": [
        {
          "indexed": true,
          "internalType": "address",
          "name": "from",
          "type": "address"
        },
        {
          "indexed": true,
          "internalType": "address",
          "name": "to",
          "type": "address"
        },
        {
          "indexed": true,
          "internalType": "uint256",
          "name": "tokenId",
          "type": "uint256"
        }
      ],
      "name": "Transfer",
      "type": "event"
    },
    {
      "inputs": [
        {
          "internalType": "uint256",
          "name": "tokenId",
          "type": "uint256"
        }
      ],
      "name": "adoptAnimal",
      "outputs": [],
      "stateMutability": "payable",
      "type": "function"
    },
    {
      "inputs": [
        {
          "internalType": "address",
          "name": "to",
          "type": "address"
        },
        {
          "internalType": "uint256",
          "name": "tokenId",
          "type": "uint256"
        }
      ],
      "name": "approve",
      "outputs": [],
      "stateMutability": "nonpayable",
      "type": "function"
    },
    {
      "inputs": [
        {
          "internalType": "address",
          "name": "owner",
          "type": "address"
        }
      ],
      "name": "balanceOf",
      "outputs": [
        {
          "internalType": "uint256",
          "name": "",
          "type": "uint256"
        }
      ],
      "stateMutability": "view",
      "type": "function"
    },
    {
      "inputs": [
        {
          "internalType": "uint256",
          "name": "tokenId",
          "type": "uint256"
        }
      ],
      "name": "getAnimal",
      "outputs": [
        {
          "components": [
            {
              "internalType": "uint256",
              "name": "tokenId",
              "type": "uint256"
            },
            {
              "internalType": "address payable",
              "name": "seller",
              "type": "address"
            },
            {
              "internalType": "address payable",
              "name": "owner",
              "type": "address"
            },
            {
              "internalType": "uint256",
              "name": "price",
              "type": "uint256"
            },
            {
              "internalType": "bool",
              "name": "sold",
              "type": "bool"
            }
          ],
          "internalType": "struct AnimalNFT.Animal",
          "name": "",
          "type": "tuple"
        }
      ],
      "stateMutability": "view",
      "type": "function"
    },
    {
      "inputs": [],
      "name": "getAnimalLength",
      "outputs": [
        {
          "internalType": "uint256",
          "name": "",
          "type": "uint256"
        }
      ],
      "stateMutability": "view",
      "type": "function"
    },
    {
      "inputs": [
        {
          "internalType": "uint256",
          "name": "tokenId",
          "type": "uint256"
        }
      ],
      "name": "getApproved",
      "outputs": [
        {
          "internalType": "address",
          "name": "",
          "type": "address"
        }
      ],
      "stateMutability": "view",
      "type": "function"
    },
    {
      "inputs": [],
      "name": "getOwners",
      "outputs": [
        {
          "internalType": "uint256",
          "name": "",
          "type": "uint256"
        }
      ],
      "stateMutability": "view",
      "type": "function"
    },
    {
      "inputs": [
        {
          "internalType": "address",
          "name": "owner",
          "type": "address"
        },
        {
          "internalType": "address",
          "name": "operator",
          "type": "address"
        }
      ],
      "name": "isApprovedForAll",
      "outputs": [
        {
          "internalType": "bool",
          "name": "",
          "type": "bool"
        }
      ],
      "stateMutability": "view",
      "type": "function"
    },
    {
      "inputs": [],
      "name": "name",
      "outputs": [
        {
          "internalType": "string",
          "name": "",
          "type": "string"
        }
      ],
      "stateMutability": "view",
      "type": "function"
    },
    {
      "inputs": [],
      "name": "owner",
      "outputs": [
        {
          "internalType": "address",
          "name": "",
          "type": "address"
        }
      ],
      "stateMutability": "view",
      "type": "function"
    },
    {
      "inputs": [
        {
          "internalType": "uint256",
          "name": "tokenId",
          "type": "uint256"
        }
      ],
      "name": "ownerOf",
      "outputs": [
        {
          "internalType": "address",
          "name": "",
          "type": "address"
        }
      ],
      "stateMutability": "view",
      "type": "function"
    },
    {
      "inputs": [
        {
          "internalType": "uint256",
          "name": "tokenId",
          "type": "uint256"
        }
      ],
      "name": "releaseAnimal",
      "outputs": [],
      "stateMutability": "payable",
      "type": "function"
    },
    {
      "inputs": [],
      "name": "renounceOwnership",
      "outputs": [],
      "stateMutability": "nonpayable",
      "type": "function"
    },
    {
      "inputs": [
        {
          "internalType": "string",
          "name": "uri",
          "type": "string"
        },
        {
          "internalType": "uint256",
          "name": "price",
          "type": "uint256"
        }
      ],
      "name": "safeMint",
      "outputs": [
        {
          "internalType": "uint256",
          "name": "",
          "type": "uint256"
        }
      ],
      "stateMutability": "payable",
      "type": "function"
    },
    {
      "inputs": [
        {
          "internalType": "address",
          "name": "from",
          "type": "address"
        },
        {
          "internalType": "address",
          "name": "to",
          "type": "address"
        },
        {
          "internalType": "uint256",
          "name": "tokenId",
          "type": "uint256"
        }
      ],
      "name": "safeTransferFrom",
      "outputs": [],
      "stateMutability": "nonpayable",
      "type": "function"
    },
    {
      "inputs": [
        {
          "internalType": "address",
          "name": "from",
          "type": "address"
        },
        {
          "internalType": "address",
          "name": "to",
          "type": "address"
        },
        {
          "internalType": "uint256",
          "name": "tokenId",
          "type": "uint256"
        },
        {
          "internalType": "bytes",
          "name": "data",
          "type": "bytes"
        }
      ],
      "name": "safeTransferFrom",
      "outputs": [],
      "stateMutability": "nonpayable",
      "type": "function"
    },
    {
      "inputs": [
        {
          "internalType": "address",
          "name": "operator",
          "type": "address"
        },
        {
          "internalType": "bool",
          "name": "approved",
          "type": "bool"
        }
      ],
      "name": "setApprovalForAll",
      "outputs": [],
      "stateMutability": "nonpayable",
      "type": "function"
    },
    {
      "inputs": [
        {
          "internalType": "bytes4",
          "name": "interfaceId",
          "type": "bytes4"
        }
      ],
      "name": "supportsInterface",
      "outputs": [
        {
          "internalType": "bool",
          "name": "",
          "type": "bool"
        }
      ],
      "stateMutability": "view",
      "type": "function"
    },
    {
      "inputs": [],
      "name": "symbol",
      "outputs": [
        {
          "internalType": "string",
          "name": "",
          "type": "string"
        }
      ],
      "stateMutability": "view",
      "type": "function"
    },
    {
      "inputs": [
        {
          "internalType": "uint256",
          "name": "index",
          "type": "uint256"
        }
      ],
      "name": "tokenByIndex",
      "outputs": [
        {
          "internalType": "uint256",
          "name": "",
          "type": "uint256"
        }
      ],
      "stateMutability": "view",
      "type": "function"
    },
    {
      "inputs": [
        {
          "internalType": "address",
          "name": "owner",
          "type": "address"
        },
        {
          "internalType": "uint256",
          "name": "index",
          "type": "uint256"
        }
      ],
      "name": "tokenOfOwnerByIndex",
      "outputs": [
        {
          "internalType": "uint256",
          "name": "",
          "type": "uint256"
        }
      ],
      "stateMutability": "view",
      "type": "function"
    },
    {
      "inputs": [
        {
          "internalType": "uint256",
          "name": "tokenId",
          "type": "uint256"
        }
      ],
      "name": "tokenURI",
      "outputs": [
        {
          "internalType": "string",
          "name": "",
          "type": "string"
        }
      ],
      "stateMutability": "view",
      "type": "function"
    },
    {
      "inputs": [],
      "name": "totalSupply",
      "outputs": [
        {
          "internalType": "uint256",
          "name": "",
          "type": "uint256"
        }
      ],
      "stateMutability": "view",
      "type": "function"
    },
    {
      "inputs": [
        {
          "internalType": "address",
          "name": "from",
          "type": "address"
        },
        {
          "internalType": "address",
          "name": "to",
          "type": "address"
        },
        {
          "internalType": "uint256",
          "name": "tokenId",
          "type": "uint256"
        }
      ],
      "name": "transferFrom",
      "outputs": [],
      "stateMutability": "nonpayable",
      "type": "function"
    },
    {
      "inputs": [
        {
          "internalType": "address",
          "name": "newOwner",
          "type": "address"
        }
      ],
      "name": "transferOwnership",
      "outputs": [],
      "stateMutability": "nonpayable",
      "type": "function"
    }
  ],
  "bytecode": "0x60806040526000600d553480156200001657600080fd5b506040518060400160405280600981526020017f5a4f4f4c414e44455200000000000000000000000000000000000000000000008152506040518060400160405280600381526020017f5a4f4f000000000000000000000000000000000000000000000000000000000081525081600090805190602001906200009b929190620001ab565b508060019080519060200190620000b4929190620001ab565b505050620000d7620000cb620000dd60201b60201c565b620000e560201b60201c565b620002c0565b600033905090565b6000600b60009054906101000a900473ffffffffffffffffffffffffffffffffffffffff16905081600b60006101000a81548173ffffffffffffffffffffffffffffffffffffffff021916908373ffffffffffffffffffffffffffffffffffffffff1602179055508173ffffffffffffffffffffffffffffffffffffffff168173ffffffffffffffffffffffffffffffffffffffff167f8be0079c531659141344cd1fd0a4f28419497f9722a3daafe3b4186f6b6457e060405160405180910390a35050565b828054620001b9906200025b565b90600052602060002090601f016020900481019282620001dd576000855562000229565b82601f10620001f857805160ff191683800117855562000229565b8280016001018555821562000229579182015b82811115620002285782518255916020019190600101906200020b565b5b5090506200023891906200023c565b5090565b5b80821115620002575760008160009055506001016200023d565b5090565b600060028204905060018216806200027457607f821691505b602082108114156200028b576200028a62000291565b5b50919050565b7f4e487b7100000000000000000000000000000000000000000000000000000000600052602260045260246000fd5b613ecc80620002d06000396000f3fe6080604052600436106101665760003560e01c80636352211e116100d1578063a0e67e2b1161008a578063b88d4fde11610064578063b88d4fde1461053b578063c87b56dd14610564578063e985e9c5146105a1578063f2fde38b146105de57610166565b8063a0e67e2b146104cb578063a22cb465146104f6578063aa2364761461051f57610166565b80636352211e146103b957806370a08231146103f6578063715018a6146104335780638da5cb5b1461044a57806392949cd41461047557806395d89b41146104a057610166565b806323b872dd1161012357806323b872dd146102805780632f745c59146102a957806342842e0e146102e657806345d3cc811461030f57806346b145e11461034c5780634f6ccce71461037c57610166565b806301ffc9a71461016b57806306fdde03146101a8578063081812fc146101d3578063095ea7b314610210578063133d8cbc1461023957806318160ddd14610255575b600080fd5b34801561017757600080fd5b50610192600480360381019061018d9190612d1f565b610607565b60405161019f9190613277565b60405180910390f35b3480156101b457600080fd5b506101bd610619565b6040516101ca9190613292565b60405180910390f35b3480156101df57600080fd5b506101fa60048036038101906101f59190612dc5565b6106ab565b6040516102079190613210565b60405180910390f35b34801561021c57600080fd5b5061023760048036038101906102329190612ce3565b6106f1565b005b610253600480360381019061024e9190612dc5565b610809565b005b34801561026157600080fd5b5061026a610994565b604051610277919061352f565b60405180910390f35b34801561028c57600080fd5b506102a760048036038101906102a29190612bdd565b6109a1565b005b3480156102b557600080fd5b506102d060048036038101906102cb9190612ce3565b610a01565b6040516102dd919061352f565b60405180910390f35b3480156102f257600080fd5b5061030d60048036038101906103089190612bdd565b610aa6565b005b34801561031b57600080fd5b5061033660048036038101906103319190612dc5565b610ac6565b6040516103439190613514565b60405180910390f35b61036660048036038101906103619190612d71565b610bce565b604051610373919061352f565b60405180910390f35b34801561038857600080fd5b506103a3600480360381019061039e9190612dc5565b610c0f565b6040516103b0919061352f565b60405180910390f35b3480156103c557600080fd5b506103e060048036038101906103db9190612dc5565b610ca6565b6040516103ed9190613210565b60405180910390f35b34801561040257600080fd5b5061041d60048036038101906104189190612b78565b610d58565b60405161042a919061352f565b60405180910390f35b34801561043f57600080fd5b50610448610e10565b005b34801561045657600080fd5b5061045f610e24565b60405161046c9190613210565b60405180910390f35b34801561048157600080fd5b5061048a610e4e565b604051610497919061352f565b60405180910390f35b3480156104ac57600080fd5b506104b5610e5f565b6040516104c29190613292565b60405180910390f35b3480156104d757600080fd5b506104e0610ef1565b6040516104ed919061352f565b60405180910390f35b34801561050257600080fd5b5061051d60048036038101906105189190612ca7565b610efb565b005b61053960048036038101906105349190612dc5565b610f11565b005b34801561054757600080fd5b50610562600480360381019061055d9190612c2c565b6110db565b005b34801561057057600080fd5b5061058b60048036038101906105869190612dc5565b61113d565b6040516105989190613292565b60405180910390f35b3480156105ad57600080fd5b506105c860048036038101906105c39190612ba1565b61114f565b6040516105d59190613277565b60405180910390f35b3480156105ea57600080fd5b5061060560048036038101906106009190612b78565b6111e3565b005b600061061282611267565b9050919050565b60606000805461062890613797565b80601f016020809104026020016040519081016040528092919081815260200182805461065490613797565b80156106a15780601f10610676576101008083540402835291602001916106a1565b820191906000526020600020905b81548152906001019060200180831161068457829003601f168201915b5050505050905090565b60006106b6826112e1565b6004600083815260200190815260200160002060009054906101000a900473ffffffffffffffffffffffffffffffffffffffff169050919050565b60006106fc82610ca6565b90508073ffffffffffffffffffffffffffffffffffffffff168373ffffffffffffffffffffffffffffffffffffffff16141561076d576040517f08c379a000000000000000000000000000000000000000000000000000000000815260040161076490613494565b60405180910390fd5b8073ffffffffffffffffffffffffffffffffffffffff1661078c61132c565b73ffffffffffffffffffffffffffffffffffffffff1614806107bb57506107ba816107b561132c565b61114f565b5b6107fa576040517f08c379a00000000000000000000000000000000000000000000000000000000081526004016107f190613414565b60405180910390fd5b6108048383611334565b505050565b3373ffffffffffffffffffffffffffffffffffffffff16600e600083815260200190815260200160002060020160009054906101000a900473ffffffffffffffffffffffffffffffffffffffff1673ffffffffffffffffffffffffffffffffffffffff16146108ad576040517f08c379a00000000000000000000000000000000000000000000000000000000081526004016108a490613354565b60405180910390fd5b6000600e600083815260200190815260200160002060040160006101000a81548160ff02191690831515021790555033600e600083815260200190815260200160002060010160006101000a81548173ffffffffffffffffffffffffffffffffffffffff021916908373ffffffffffffffffffffffffffffffffffffffff16021790555030600e600083815260200190815260200160002060020160006101000a81548173ffffffffffffffffffffffffffffffffffffffff021916908373ffffffffffffffffffffffffffffffffffffffff1602179055506109913330836113ed565b50565b6000600880549050905090565b6109b26109ac61132c565b82611654565b6109f1576040517f08c379a00000000000000000000000000000000000000000000000000000000081526004016109e8906134d4565b60405180910390fd5b6109fc8383836113ed565b505050565b6000610a0c83610d58565b8210610a4d576040517f08c379a0000000000000000000000000000000000000000000000000000000008152600401610a44906132b4565b60405180910390fd5b600660008473ffffffffffffffffffffffffffffffffffffffff1673ffffffffffffffffffffffffffffffffffffffff168152602001908152602001600020600083815260200190815260200160002054905092915050565b610ac1838383604051806020016040528060008152506110db565b505050565b610ace61293f565b600e60008381526020019081526020016000206040518060a0016040529081600082015481526020016001820160009054906101000a900473ffffffffffffffffffffffffffffffffffffffff1673ffffffffffffffffffffffffffffffffffffffff1673ffffffffffffffffffffffffffffffffffffffff1681526020016002820160009054906101000a900473ffffffffffffffffffffffffffffffffffffffff1673ffffffffffffffffffffffffffffffffffffffff1673ffffffffffffffffffffffffffffffffffffffff168152602001600382015481526020016004820160009054906101000a900460ff1615151515815250509050919050565b600080610bdb600c6116e9565b9050610be7600c6116f7565b610bf1338261170d565b610bfb81856118e7565b610c05818461195b565b8091505092915050565b6000610c19610994565b8210610c5a576040517f08c379a0000000000000000000000000000000000000000000000000000000008152600401610c51906134b4565b60405180910390fd5b60088281548110610c94577f4e487b7100000000000000000000000000000000000000000000000000000000600052603260045260246000fd5b90600052602060002001549050919050565b6000806002600084815260200190815260200160002060009054906101000a900473ffffffffffffffffffffffffffffffffffffffff169050600073ffffffffffffffffffffffffffffffffffffffff168173ffffffffffffffffffffffffffffffffffffffff161415610d4f576040517f08c379a0000000000000000000000000000000000000000000000000000000008152600401610d4690613474565b60405180910390fd5b80915050919050565b60008073ffffffffffffffffffffffffffffffffffffffff168273ffffffffffffffffffffffffffffffffffffffff161415610dc9576040517f08c379a0000000000000000000000000000000000000000000000000000000008152600401610dc0906133b4565b60405180910390fd5b600360008373ffffffffffffffffffffffffffffffffffffffff1673ffffffffffffffffffffffffffffffffffffffff168152602001908152602001600020549050919050565b610e18611adb565b610e226000611b59565b565b6000600b60009054906101000a900473ffffffffffffffffffffffffffffffffffffffff16905090565b6000610e5a600c6116e9565b905090565b606060018054610e6e90613797565b80601f0160208091040260200160405190810160405280929190818152602001828054610e9a90613797565b8015610ee75780601f10610ebc57610100808354040283529160200191610ee7565b820191906000526020600020905b815481529060010190602001808311610eca57829003601f168201915b5050505050905090565b6000600d54905090565b610f0d610f0661132c565b8383611c1f565b5050565b6000600e60008381526020019081526020016000206003015490506000600e600084815260200190815260200160002060010160009054906101000a900473ffffffffffffffffffffffffffffffffffffffff16905081341015610faa576040517f08c379a0000000000000000000000000000000000000000000000000000000008152600401610fa1906133f4565b60405180910390fd5b33600e600085815260200190815260200160002060020160006101000a81548173ffffffffffffffffffffffffffffffffffffffff021916908373ffffffffffffffffffffffffffffffffffffffff1602179055506001600e600085815260200190815260200160002060040160006101000a81548160ff0219169083151502179055506000600e600085815260200190815260200160002060010160006101000a81548173ffffffffffffffffffffffffffffffffffffffff021916908373ffffffffffffffffffffffffffffffffffffffff16021790555061108f3033856113ed565b8073ffffffffffffffffffffffffffffffffffffffff166108fc349081150290604051600060405180830381858888f193505050501580156110d5573d6000803e3d6000fd5b50505050565b6110ec6110e661132c565b83611654565b61112b576040517f08c379a0000000000000000000000000000000000000000000000000000000008152600401611122906134d4565b60405180910390fd5b61113784848484611d8c565b50505050565b606061114882611de8565b9050919050565b6000600560008473ffffffffffffffffffffffffffffffffffffffff1673ffffffffffffffffffffffffffffffffffffffff16815260200190815260200160002060008373ffffffffffffffffffffffffffffffffffffffff1673ffffffffffffffffffffffffffffffffffffffff16815260200190815260200160002060009054906101000a900460ff16905092915050565b6111eb611adb565b600073ffffffffffffffffffffffffffffffffffffffff168173ffffffffffffffffffffffffffffffffffffffff16141561125b576040517f08c379a0000000000000000000000000000000000000000000000000000000008152600401611252906132f4565b60405180910390fd5b61126481611b59565b50565b60007f780e9d63000000000000000000000000000000000000000000000000000000007bffffffffffffffffffffffffffffffffffffffffffffffffffffffff1916827bffffffffffffffffffffffffffffffffffffffffffffffffffffffff191614806112da57506112d982611efb565b5b9050919050565b6112ea81611fdd565b611329576040517f08c379a000000000000000000000000000000000000000000000000000000000815260040161132090613474565b60405180910390fd5b50565b600033905090565b816004600083815260200190815260200160002060006101000a81548173ffffffffffffffffffffffffffffffffffffffff021916908373ffffffffffffffffffffffffffffffffffffffff160217905550808273ffffffffffffffffffffffffffffffffffffffff166113a783610ca6565b73ffffffffffffffffffffffffffffffffffffffff167f8c5be1e5ebec7d5bd14f71427d1e84f3dd0314c0f7b2291e5b200ac8c7c3b92560405160405180910390a45050565b8273ffffffffffffffffffffffffffffffffffffffff1661140d82610ca6565b73ffffffffffffffffffffffffffffffffffffffff1614611463576040517f08c379a000000000000000000000000000000000000000000000000000000000815260040161145a90613314565b60405180910390fd5b600073ffffffffffffffffffffffffffffffffffffffff168273ffffffffffffffffffffffffffffffffffffffff1614156114d3576040517f08c379a00000000000000000000000000000000000000000000000000000000081526004016114ca90613374565b60405180910390fd5b6114de838383612049565b6114e9600082611334565b6001600360008573ffffffffffffffffffffffffffffffffffffffff1673ffffffffffffffffffffffffffffffffffffffff1681526020019081526020016000206000828254611539919061369b565b925050819055506001600360008473ffffffffffffffffffffffffffffffffffffffff1673ffffffffffffffffffffffffffffffffffffffff16815260200190815260200160002060008282546115909190613614565b92505081905550816002600083815260200190815260200160002060006101000a81548173ffffffffffffffffffffffffffffffffffffffff021916908373ffffffffffffffffffffffffffffffffffffffff160217905550808273ffffffffffffffffffffffffffffffffffffffff168473ffffffffffffffffffffffffffffffffffffffff167fddf252ad1be2c89b69c2b068fc378daa952ba7f163c4a11628f55a4df523b3ef60405160405180910390a461164f838383612059565b505050565b60008061166083610ca6565b90508073ffffffffffffffffffffffffffffffffffffffff168473ffffffffffffffffffffffffffffffffffffffff1614806116a257506116a1818561114f565b5b806116e057508373ffffffffffffffffffffffffffffffffffffffff166116c8846106ab565b73ffffffffffffffffffffffffffffffffffffffff16145b91505092915050565b600081600001549050919050565b6001816000016000828254019250508190555050565b600073ffffffffffffffffffffffffffffffffffffffff168273ffffffffffffffffffffffffffffffffffffffff16141561177d576040517f08c379a000000000000000000000000000000000000000000000000000000000815260040161177490613434565b60405180910390fd5b61178681611fdd565b156117c6576040517f08c379a00000000000000000000000000000000000000000000000000000000081526004016117bd90613334565b60405180910390fd5b6117d260008383612049565b6001600360008473ffffffffffffffffffffffffffffffffffffffff1673ffffffffffffffffffffffffffffffffffffffff16815260200190815260200160002060008282546118229190613614565b92505081905550816002600083815260200190815260200160002060006101000a81548173ffffffffffffffffffffffffffffffffffffffff021916908373ffffffffffffffffffffffffffffffffffffffff160217905550808273ffffffffffffffffffffffffffffffffffffffff16600073ffffffffffffffffffffffffffffffffffffffff167fddf252ad1be2c89b69c2b068fc378daa952ba7f163c4a11628f55a4df523b3ef60405160405180910390a46118e360008383612059565b5050565b6118f082611fdd565b61192f576040517f08c379a0000000000000000000000000000000000000000000000000000000008152600401611926906133d4565b60405180910390fd5b80600a6000848152602001908152602001600020908051906020019061195692919061299c565b505050565b6000811161199e576040517f08c379a0000000000000000000000000000000000000000000000000000000008152600401611995906134f4565b60405180910390fd5b6040518060a001604052808381526020013373ffffffffffffffffffffffffffffffffffffffff1681526020013073ffffffffffffffffffffffffffffffffffffffff16815260200182815260200160001515815250600e60008481526020019081526020016000206000820151816000015560208201518160010160006101000a81548173ffffffffffffffffffffffffffffffffffffffff021916908373ffffffffffffffffffffffffffffffffffffffff16021790555060408201518160020160006101000a81548173ffffffffffffffffffffffffffffffffffffffff021916908373ffffffffffffffffffffffffffffffffffffffff1602179055506060820151816003015560808201518160040160006101000a81548160ff021916908315150217905550905050611ad73330846113ed565b5050565b611ae361132c565b73ffffffffffffffffffffffffffffffffffffffff16611b01610e24565b73ffffffffffffffffffffffffffffffffffffffff1614611b57576040517f08c379a0000000000000000000000000000000000000000000000000000000008152600401611b4e90613454565b60405180910390fd5b565b6000600b60009054906101000a900473ffffffffffffffffffffffffffffffffffffffff16905081600b60006101000a81548173ffffffffffffffffffffffffffffffffffffffff021916908373ffffffffffffffffffffffffffffffffffffffff1602179055508173ffffffffffffffffffffffffffffffffffffffff168173ffffffffffffffffffffffffffffffffffffffff167f8be0079c531659141344cd1fd0a4f28419497f9722a3daafe3b4186f6b6457e060405160405180910390a35050565b8173ffffffffffffffffffffffffffffffffffffffff168373ffffffffffffffffffffffffffffffffffffffff161415611c8e576040517f08c379a0000000000000000000000000000000000000000000000000000000008152600401611c8590613394565b60405180910390fd5b80600560008573ffffffffffffffffffffffffffffffffffffffff1673ffffffffffffffffffffffffffffffffffffffff16815260200190815260200160002060008473ffffffffffffffffffffffffffffffffffffffff1673ffffffffffffffffffffffffffffffffffffffff16815260200190815260200160002060006101000a81548160ff0219169083151502179055508173ffffffffffffffffffffffffffffffffffffffff168373ffffffffffffffffffffffffffffffffffffffff167f17307eab39ab6107e8899845ad3d59bd9653f200f220920489ca2b5937696c3183604051611d7f9190613277565b60405180910390a3505050565b611d978484846113ed565b611da38484848461205e565b611de2576040517f08c379a0000000000000000000000000000000000000000000000000000000008152600401611dd9906132d4565b60405180910390fd5b50505050565b6060611df3826112e1565b6000600a60008481526020019081526020016000208054611e1390613797565b80601f0160208091040260200160405190810160405280929190818152602001828054611e3f90613797565b8015611e8c5780601f10611e6157610100808354040283529160200191611e8c565b820191906000526020600020905b815481529060010190602001808311611e6f57829003601f168201915b505050505090506000611e9d6121f5565b9050600081511415611eb3578192505050611ef6565b600082511115611ee8578082604051602001611ed09291906131ec565b60405160208183030381529060405292505050611ef6565b611ef18461220c565b925050505b919050565b60007f80ac58cd000000000000000000000000000000000000000000000000000000007bffffffffffffffffffffffffffffffffffffffffffffffffffffffff1916827bffffffffffffffffffffffffffffffffffffffffffffffffffffffff19161480611fc657507f5b5e139f000000000000000000000000000000000000000000000000000000007bffffffffffffffffffffffffffffffffffffffffffffffffffffffff1916827bffffffffffffffffffffffffffffffffffffffffffffffffffffffff1916145b80611fd65750611fd582612274565b5b9050919050565b60008073ffffffffffffffffffffffffffffffffffffffff166002600084815260200190815260200160002060009054906101000a900473ffffffffffffffffffffffffffffffffffffffff1673ffffffffffffffffffffffffffffffffffffffff1614159050919050565b6120548383836122de565b505050565b505050565b600061207f8473ffffffffffffffffffffffffffffffffffffffff166123f2565b156121e8578373ffffffffffffffffffffffffffffffffffffffff1663150b7a026120a861132c565b8786866040518563ffffffff1660e01b81526004016120ca949392919061322b565b602060405180830381600087803b1580156120e457600080fd5b505af192505050801561211557506040513d601f19601f820116820180604052508101906121129190612d48565b60015b612198573d8060008114612145576040519150601f19603f3d011682016040523d82523d6000602084013e61214a565b606091505b50600081511415612190576040517f08c379a0000000000000000000000000000000000000000000000000000000008152600401612187906132d4565b60405180910390fd5b805181602001fd5b63150b7a0260e01b7bffffffffffffffffffffffffffffffffffffffffffffffffffffffff1916817bffffffffffffffffffffffffffffffffffffffffffffffffffffffff1916149150506121ed565b600190505b949350505050565b606060405180602001604052806000815250905090565b6060612217826112e1565b60006122216121f5565b90506000815111612241576040518060200160405280600081525061226c565b8061224b84612415565b60405160200161225c9291906131ec565b6040516020818303038152906040525b915050919050565b60007f01ffc9a7000000000000000000000000000000000000000000000000000000007bffffffffffffffffffffffffffffffffffffffffffffffffffffffff1916827bffffffffffffffffffffffffffffffffffffffffffffffffffffffff1916149050919050565b6122e98383836125c2565b600073ffffffffffffffffffffffffffffffffffffffff168373ffffffffffffffffffffffffffffffffffffffff16141561232c57612327816125c7565b61236b565b8173ffffffffffffffffffffffffffffffffffffffff168373ffffffffffffffffffffffffffffffffffffffff161461236a576123698382612610565b5b5b600073ffffffffffffffffffffffffffffffffffffffff168273ffffffffffffffffffffffffffffffffffffffff1614156123ae576123a98161277d565b6123ed565b8273ffffffffffffffffffffffffffffffffffffffff168273ffffffffffffffffffffffffffffffffffffffff16146123ec576123eb82826128c0565b5b5b505050565b6000808273ffffffffffffffffffffffffffffffffffffffff163b119050919050565b6060600082141561245d576040518060400160405280600181526020017f300000000000000000000000000000000000000000000000000000000000000081525090506125bd565b600082905060005b6000821461248f578080612478906137fa565b915050600a82612488919061366a565b9150612465565b60008167ffffffffffffffff8111156124d1577f4e487b7100000000000000000000000000000000000000000000000000000000600052604160045260246000fd5b6040519080825280601f01601f1916602001820160405280156125035781602001600182028036833780820191505090505b5090505b600085146125b65760018261251c919061369b565b9150600a8561252b9190613843565b60306125379190613614565b60f81b818381518110612573577f4e487b7100000000000000000000000000000000000000000000000000000000600052603260045260246000fd5b60200101907effffffffffffffffffffffffffffffffffffffffffffffffffffffffffffff1916908160001a905350600a856125af919061366a565b9450612507565b8093505050505b919050565b505050565b6008805490506009600083815260200190815260200160002081905550600881908060018154018082558091505060019003906000526020600020016000909190919091505550565b6000600161261d84610d58565b612627919061369b565b905060006007600084815260200190815260200160002054905081811461270c576000600660008673ffffffffffffffffffffffffffffffffffffffff1673ffffffffffffffffffffffffffffffffffffffff168152602001908152602001600020600084815260200190815260200160002054905080600660008773ffffffffffffffffffffffffffffffffffffffff1673ffffffffffffffffffffffffffffffffffffffff168152602001908152602001600020600084815260200190815260200160002081905550816007600083815260200190815260200160002081905550505b6007600084815260200190815260200160002060009055600660008573ffffffffffffffffffffffffffffffffffffffff1673ffffffffffffffffffffffffffffffffffffffff16815260200190815260200160002060008381526020019081526020016000206000905550505050565b60006001600880549050612791919061369b565b90506000600960008481526020019081526020016000205490506000600883815481106127e7577f4e487b7100000000000000000000000000000000000000000000000000000000600052603260045260246000fd5b90600052602060002001549050806008838154811061282f577f4e487b7100000000000000000000000000000000000000000000000000000000600052603260045260246000fd5b9060005260206000200181905550816009600083815260200190815260200160002081905550600960008581526020019081526020016000206000905560088054806128a4577f4e487b7100000000000000000000000000000000000000000000000000000000600052603160045260246000fd5b6001900381819060005260206000200160009055905550505050565b60006128cb83610d58565b905081600660008573ffffffffffffffffffffffffffffffffffffffff1673ffffffffffffffffffffffffffffffffffffffff168152602001908152602001600020600083815260200190815260200160002081905550806007600084815260200190815260200160002081905550505050565b6040518060a0016040528060008152602001600073ffffffffffffffffffffffffffffffffffffffff168152602001600073ffffffffffffffffffffffffffffffffffffffff168152602001600081526020016000151581525090565b8280546129a890613797565b90600052602060002090601f0160209004810192826129ca5760008555612a11565b82601f106129e357805160ff1916838001178555612a11565b82800160010185558215612a11579182015b82811115612a105782518255916020019190600101906129f5565b5b509050612a1e9190612a22565b5090565b5b80821115612a3b576000816000905550600101612a23565b5090565b6000612a52612a4d8461356f565b61354a565b905082815260208101848484011115612a6a57600080fd5b612a75848285613755565b509392505050565b6000612a90612a8b846135a0565b61354a565b905082815260208101848484011115612aa857600080fd5b612ab3848285613755565b509392505050565b600081359050612aca81613e3a565b92915050565b600081359050612adf81613e51565b92915050565b600081359050612af481613e68565b92915050565b600081519050612b0981613e68565b92915050565b600082601f830112612b2057600080fd5b8135612b30848260208601612a3f565b91505092915050565b600082601f830112612b4a57600080fd5b8135612b5a848260208601612a7d565b91505092915050565b600081359050612b7281613e7f565b92915050565b600060208284031215612b8a57600080fd5b6000612b9884828501612abb565b91505092915050565b60008060408385031215612bb457600080fd5b6000612bc285828601612abb565b9250506020612bd385828601612abb565b9150509250929050565b600080600060608486031215612bf257600080fd5b6000612c0086828701612abb565b9350506020612c1186828701612abb565b9250506040612c2286828701612b63565b9150509250925092565b60008060008060808587031215612c4257600080fd5b6000612c5087828801612abb565b9450506020612c6187828801612abb565b9350506040612c7287828801612b63565b925050606085013567ffffffffffffffff811115612c8f57600080fd5b612c9b87828801612b0f565b91505092959194509250565b60008060408385031215612cba57600080fd5b6000612cc885828601612abb565b9250506020612cd985828601612ad0565b9150509250929050565b60008060408385031215612cf657600080fd5b6000612d0485828601612abb565b9250506020612d1585828601612b63565b9150509250929050565b600060208284031215612d3157600080fd5b6000612d3f84828501612ae5565b91505092915050565b600060208284031215612d5a57600080fd5b6000612d6884828501612afa565b91505092915050565b60008060408385031215612d8457600080fd5b600083013567ffffffffffffffff811115612d9e57600080fd5b612daa85828601612b39565b9250506020612dbb85828601612b63565b9150509250929050565b600060208284031215612dd757600080fd5b6000612de584828501612b63565b91505092915050565b612df7816136e1565b82525050565b612e06816136cf565b82525050565b612e15816136f3565b82525050565b612e24816136f3565b82525050565b6000612e35826135d1565b612e3f81856135e7565b9350612e4f818560208601613764565b612e5881613930565b840191505092915050565b6000612e6e826135dc565b612e7881856135f8565b9350612e88818560208601613764565b612e9181613930565b840191505092915050565b6000612ea7826135dc565b612eb18185613609565b9350612ec1818560208601613764565b80840191505092915050565b6000612eda602b836135f8565b9150612ee582613941565b604082019050919050565b6000612efd6032836135f8565b9150612f0882613990565b604082019050919050565b6000612f206026836135f8565b9150612f2b826139df565b604082019050919050565b6000612f436025836135f8565b9150612f4e82613a2e565b604082019050919050565b6000612f66601c836135f8565b9150612f7182613a7d565b602082019050919050565b6000612f89602f836135f8565b9150612f9482613aa6565b604082019050919050565b6000612fac6024836135f8565b9150612fb782613af5565b604082019050919050565b6000612fcf6019836135f8565b9150612fda82613b44565b602082019050919050565b6000612ff26029836135f8565b9150612ffd82613b6d565b604082019050919050565b6000613015602e836135f8565b915061302082613bbc565b604082019050919050565b60006130386040836135f8565b915061304382613c0b565b604082019050919050565b600061305b603e836135f8565b915061306682613c5a565b604082019050919050565b600061307e6020836135f8565b915061308982613ca9565b602082019050919050565b60006130a16020836135f8565b91506130ac82613cd2565b602082019050919050565b60006130c46018836135f8565b91506130cf82613cfb565b602082019050919050565b60006130e76021836135f8565b91506130f282613d24565b604082019050919050565b600061310a602c836135f8565b915061311582613d73565b604082019050919050565b600061312d602e836135f8565b915061313882613dc2565b604082019050919050565b6000613150601c836135f8565b915061315b82613e11565b602082019050919050565b60a08201600082015161317c60008501826131ce565b50602082015161318f6020850182612dee565b5060408201516131a26040850182612dee565b5060608201516131b560608501826131ce565b5060808201516131c86080850182612e0c565b50505050565b6131d78161374b565b82525050565b6131e68161374b565b82525050565b60006131f88285612e9c565b91506132048284612e9c565b91508190509392505050565b60006020820190506132256000830184612dfd565b92915050565b60006080820190506132406000830187612dfd565b61324d6020830186612dfd565b61325a60408301856131dd565b818103606083015261326c8184612e2a565b905095945050505050565b600060208201905061328c6000830184612e1b565b92915050565b600060208201905081810360008301526132ac8184612e63565b905092915050565b600060208201905081810360008301526132cd81612ecd565b9050919050565b600060208201905081810360008301526132ed81612ef0565b9050919050565b6000602082019050818103600083015261330d81612f13565b9050919050565b6000602082019050818103600083015261332d81612f36565b9050919050565b6000602082019050818103600083015261334d81612f59565b9050919050565b6000602082019050818103600083015261336d81612f7c565b9050919050565b6000602082019050818103600083015261338d81612f9f565b9050919050565b600060208201905081810360008301526133ad81612fc2565b9050919050565b600060208201905081810360008301526133cd81612fe5565b9050919050565b600060208201905081810360008301526133ed81613008565b9050919050565b6000602082019050818103600083015261340d8161302b565b9050919050565b6000602082019050818103600083015261342d8161304e565b9050919050565b6000602082019050818103600083015261344d81613071565b9050919050565b6000602082019050818103600083015261346d81613094565b9050919050565b6000602082019050818103600083015261348d816130b7565b9050919050565b600060208201905081810360008301526134ad816130da565b9050919050565b600060208201905081810360008301526134cd816130fd565b9050919050565b600060208201905081810360008301526134ed81613120565b9050919050565b6000602082019050818103600083015261350d81613143565b9050919050565b600060a0820190506135296000830184613166565b92915050565b600060208201905061354460008301846131dd565b92915050565b6000613554613565565b905061356082826137c9565b919050565b6000604051905090565b600067ffffffffffffffff82111561358a57613589613901565b5b61359382613930565b9050602081019050919050565b600067ffffffffffffffff8211156135bb576135ba613901565b5b6135c482613930565b9050602081019050919050565b600081519050919050565b600081519050919050565b600082825260208201905092915050565b600082825260208201905092915050565b600081905092915050565b600061361f8261374b565b915061362a8361374b565b9250827fffffffffffffffffffffffffffffffffffffffffffffffffffffffffffffffff0382111561365f5761365e613874565b5b828201905092915050565b60006136758261374b565b91506136808361374b565b9250826136905761368f6138a3565b5b828204905092915050565b60006136a68261374b565b91506136b18361374b565b9250828210156136c4576136c3613874565b5b828203905092915050565b60006136da8261372b565b9050919050565b60006136ec8261372b565b9050919050565b60008115159050919050565b60007fffffffff0000000000000000000000000000000000000000000000000000000082169050919050565b600073ffffffffffffffffffffffffffffffffffffffff82169050919050565b6000819050919050565b82818337600083830152505050565b60005b83811015613782578082015181840152602081019050613767565b83811115613791576000848401525b50505050565b600060028204905060018216806137af57607f821691505b602082108114156137c3576137c26138d2565b5b50919050565b6137d282613930565b810181811067ffffffffffffffff821117156137f1576137f0613901565b5b80604052505050565b60006138058261374b565b91507fffffffffffffffffffffffffffffffffffffffffffffffffffffffffffffffff82141561383857613837613874565b5b600182019050919050565b600061384e8261374b565b91506138598361374b565b925082613869576138686138a3565b5b828206905092915050565b7f4e487b7100000000000000000000000000000000000000000000000000000000600052601160045260246000fd5b7f4e487b7100000000000000000000000000000000000000000000000000000000600052601260045260246000fd5b7f4e487b7100000000000000000000000000000000000000000000000000000000600052602260045260246000fd5b7f4e487b7100000000000000000000000000000000000000000000000000000000600052604160045260246000fd5b6000601f19601f8301169050919050565b7f455243373231456e756d657261626c653a206f776e657220696e646578206f7560008201527f74206f6620626f756e6473000000000000000000000000000000000000000000602082015250565b7f4552433732313a207472616e7366657220746f206e6f6e20455243373231526560008201527f63656976657220696d706c656d656e7465720000000000000000000000000000602082015250565b7f4f776e61626c653a206e6577206f776e657220697320746865207a65726f206160008201527f6464726573730000000000000000000000000000000000000000000000000000602082015250565b7f4552433732313a207472616e736665722066726f6d20696e636f72726563742060008201527f6f776e6572000000000000000000000000000000000000000000000000000000602082015250565b7f4552433732313a20746f6b656e20616c7265616479206d696e74656400000000600082015250565b7f4f6e6c79206f776e6572206f6620616e696d616c2063616e20706572666f726d60008201527f2074686973206f7065726174696f6e0000000000000000000000000000000000602082015250565b7f4552433732313a207472616e7366657220746f20746865207a65726f2061646460008201527f7265737300000000000000000000000000000000000000000000000000000000602082015250565b7f4552433732313a20617070726f766520746f2063616c6c657200000000000000600082015250565b7f4552433732313a2061646472657373207a65726f206973206e6f74206120766160008201527f6c6964206f776e65720000000000000000000000000000000000000000000000602082015250565b7f45524337323155524953746f726167653a2055524920736574206f66206e6f6e60008201527f6578697374656e7420746f6b656e000000000000000000000000000000000000602082015250565b7f506c65617365207375626d6974207468652061736b696e67207072696365206960008201527f6e206f7264657220746f20636f6d706c65746520746865207075726368617365602082015250565b7f4552433732313a20617070726f76652063616c6c6572206973206e6f7420746f60008201527f6b656e206f776e6572206e6f7220617070726f76656420666f7220616c6c0000602082015250565b7f4552433732313a206d696e7420746f20746865207a65726f2061646472657373600082015250565b7f4f776e61626c653a2063616c6c6572206973206e6f7420746865206f776e6572600082015250565b7f4552433732313a20696e76616c696420746f6b656e2049440000000000000000600082015250565b7f4552433732313a20617070726f76616c20746f2063757272656e74206f776e6560008201527f7200000000000000000000000000000000000000000000000000000000000000602082015250565b7f455243373231456e756d657261626c653a20676c6f62616c20696e646578206f60008201527f7574206f6620626f756e64730000000000000000000000000000000000000000602082015250565b7f4552433732313a2063616c6c6572206973206e6f7420746f6b656e206f776e6560008201527f72206e6f7220617070726f766564000000000000000000000000000000000000602082015250565b7f5072696365206d757374206265206174206c6561737420312077656900000000600082015250565b613e43816136cf565b8114613e4e57600080fd5b50565b613e5a816136f3565b8114613e6557600080fd5b50565b613e71816136ff565b8114613e7c57600080fd5b50565b613e888161374b565b8114613e9357600080fd5b5056fea26469706673582212208d9b311adc5e044a75ea7d3d31b32cd5d1401f5b50237fa97f87889c77ccaa6f64736f6c63430008040033",
  "linkReferences": {},
  "deployedLinkReferences": {}
}